:100D8D00003E5149453E0000427F40000042615106
:100D9D004946002141454B31001814127F100027A0
:100DAD0045454539003C4A49493000017109050363
:100DBD0000364949493600064949291E0000000000
:100DCD000000404042CC0040404040FF4040404089
:100DDD0040000000000000000000000000000000C6
:100DED0000000000007F2010000000FF0000000048
:100DFD0000000000000000000000000000000000E6
:100E0D0000004040407C404040FF44444444444046
:100E1D004000000000000000000000000000000085
:100E2D000000809088464040202F101008040200DA
:100E3D0000000000000000000000000000000000A5
:100E4D00000080809E9292929EE0809EB2D2929EF1
:100E5D008000000000000000000000000000000005
:100E6D0000000808F4949292F10001F2929494F823
:100E7D00080000000000000000000000000000005D
:020E8D00000063
:10141C00023100000221000002230000022700001C
:0D1485000000000000000000000000002238
:0E143D007F307E02EF1FAC0670011E4C70F671
:01144B00227E
:10137900E4FDFCC3ED9FEC9E5015E4FBFA0BBB00AA
:0F138900010AEB64794A70F50DBD00010C80E498
:011398002232
:0F144C00D294D293121485C294121485C29322A3
:0C149200C294D293121485D294021485E7
:0E145B00A2009294D293121485C293021485BB
:0C149E00D293121485A294C2930214850C
:0513990012144C7FA6B8
:10139E00E4FEEF25E0FF9294D293121485C29312CD
:0913AE0014850EBE08EC02149E29
:1013B700E4FFD294FEEF25E0FFD293121485A294A6
:0D13C700E4334207C2931214850EBE08E8FD
:0113D40022F6
:10140A00AC07121399AF0412139EAF0512139E0272
:02141A0014922A
:0213D500AD0762
:1013D700121399AF0512139E12144C7FA712139E76
:0B13E7001213B7D20012145B02149224
:10127D001213997F3212139E12144C7FA712139ED4
:10128D00E4FD1213B774292DF8A607BD0504D2008D
:10129D008002C20012145B0DBD06E71214920214F7
:0112AD003D03
:1012AE007D0B7F3112140A7D087F2C12140A7F2DBC
:1012BE0012140A7D807F2E12140AE4FD7F1E121472
:0D12CE000A7F1F12140A7D057F2002140AFA
:100C4B00E4F518F517F516F515E52AFE7C00E425F5
:100C5B0029F526EC3EF525C364809480500BC3E444
:100C6B009526F526E49525F525AC25AD26EC120B3E
:100C7B001CE4FBFA79207841120A018F148E138D34
:100C8B00128C11AB18AA17A916A815C000C001C069
:100C9B0002C003A804A905AA06AB071208F8D003E3
:100CAB00D002D001D0001208078F188E178D168C2A
:100CBB0015E52CFE7C00E4252BF526EC3EF525C333
:100CCB0064809480500BC3E49526F526E49525F5B6
:100CDB0025AC25AD26EC120B1CE4FBFA79207841F0
:100CEB00120A018F148E138D128C11AB18AA17A92F
:100CFB0016A815C000C001C002C003A804A905AA0C
:100D0B0006AB071208F8D003D002D001D0001208AE
:100D1B00078F188E178D168C15E52EFE7C00E4259B
:100D2B002DF526EC3EF525C364809480500BC3E46F
:100D3B009526F526E49525F525AC25AD26EC120B6D
:100D4B001CE4FBFA79207841120A018F148E138D63
:100D5B00128C11AB18AA17A916A815C000C001C098
:100D6B0002C003A804A905AA06AB071208F8D00312
:100D7B00D002D001D0001208078F188E178D168C59
:010D8B001552
:010D8C002244
:10102600120C4B8F108E0F8D0E8C0D7F147E0012BE
:10103600137912127D120C4BAB10AA0FA90EA80D34
:10104600120807E4FBFAF97840120A018F108E0F96
:101056008D0E8C0DE4FBFA79407840120A01120BD2
:1010660055EF2522F522EE3521F5210524E52470DC
:10107600020523C39403E5239400400FE4F523F50A
:1010860024852131852232F521F522E5322437FDEA
:10109600E43531FCE4120B1CAB10AA0FA90EA80D07
:1010A600120A9E6011400F0528E528700205277F69
:0610B600967E0012137982
:0110BC002211
:0914AA00D294D293C293C29422A1
:0714B300D294C293D29322F0
:0B142D00121338121438AF04121338E9
:05143800D294C29422D1
:07133100AC071214AA7F783B
:10133800C294E4FEAD07530580BD8004D2938002B9
:0E134800C293EF25E0FFD294C2940EBE08E6D9
:011356002274
:0E146900121331121438E4FF12142D0214B3C2
:0E1477001213311214387F4012142D0214B3D8
:10135700121368E4FDFCFFFE1213687F10E4FDFC26
:01136700FE87
:10136800AB07AA06ED4C6003021477AF03121469A9
:011378002252
:1012DB00A907ED24B0FFE433FEE4FDFC121368E92B
:1012EB0054F0C4540F7E004410FFE4FDFC1213684D
:0C12FB00E9540FFF7E00E4FDFC021368C4
:10130700E4F9E924B0FFE433FEE4FDFC121357E4EB
:10131700F50D7D017C00E4FFFE121368050DE50D58
:09132700C3948040ED09B908D916
:01133000229A
:10123300E4F51AF9BB2005751A0A8005EB24D0F5ED
:101243001AEFD3947F4004E4FF0D0D1212DBE4F98F
:10125300E51A75F006A4248DF582E4340DF583E5D3
:101263008229F582E43583F583E493FF7E007D01D3
:091273007C0012136809B906D7CA
:01127C00224F
:0413F2008F16A905A4
:1013F6007F017E00AD0119ED6009AD167C00120B70
:03140600D680F19C
:0114090022C0
:081149008F0D8D0E8A0F8B1033
:10115100E4F515F513E513C395115065C3E5119534
:101161001314FD7F0A1213F2AC0FAD10CFCDCFCE09
:10117100CCCE120BE87C007D0A120BE88D14E5152C
:101181007023E51114FFE513C39F5019E514701284
:10119100E512C3138513F0A4250DFF8512197B20D9
:1011A1008016751501E512C3138513F0A4250DFFF3
:1011B100E5142430FB851219AD0E1212330513808C
:0111C1009499
:0111C200220A
:0611C3008F0D8D0E8B0F55
:1011C900E4F5101212DBE4F9E50F75F040A424CF21
:1011D900F582E4340DF583E58229F582E43583F55A
:1011E90083E493FF7E007D017C00121368051009DA
:1011F900B910D5E50E04FDAF0D1212DBE4F9E50FC8
:1012090075F040A424EFF582E4340DF583E58229D5
:10121900F582E43583F583E493FF7E007D017C004C
:09122900121368051009B910D573
:011232002299
:100E8F00E4FDFC7FAEFE1213577F40121364E4FDA6
:100E9F00FC7FB0FE121368E4FDFC7F81FE12136825
:100EAF00E4FDFC7FFFFE121368E4FDFC7FA1FE1240
:100EBF001368E4FDFC7FA6FE121368E4FDFC7FA817
:100ECF00FE121368E4FDFC7F3FFE121368E4FDFC85
:100EDF007FC8FE121368E4FDFC7FD3FE121368E493
:100EEF00FDFCFFFE121368E4FDFC7FD5FE121368B4
:100EFF00E4FDFC7F80FE121368E4FDFC7FD8FE1238
:100F0F001368E4FDFC7F05FE121368E4FDFC7FD936
:100F1F00FE121368E4FDFC7FF1FE121368E4FDFC82
:100F2F007FDAFE121368E4FDFC7F12FE121368E4F1
:100F3F00FDFC7FDBFE121368E4FDFC7F30FE121315
:100F4F0068E4FDFC7F8DFE121368E4FDFC7F14FE48
:0C0F5F00121368E4FDFC7FAFFE02136873
:100F6B00E4F50BF50C7F64FE121379C290C291125B
:100F7B0012AEE4FF1213D58F08120E8F7FE87E039B
:100F8B00121379121307E4F509F50A12127D120CEC
:100F9B004BE4FBFA79407840120A01120B55EF250E
:100FAB0022F522EE3521F5210524E52470020523D7
:100FBB00C39403E5239400400FE4F523F524852126
:100FCB0031852232F521F5227F507E0012137905EF
:100FDB000AE50A70020509C39403E509940040ABC6
:100FEB0012127D121026E4FB7D027F1C1211C37BB3
:100FFB00017D027F3C1211C37B027D027F5C1211CB
:10100B00C3751104751210AB28AA277D067F281211
:0B101B0011497F327E0012137980C55E
:10080000020BC1E86480F8E933E83360110460F05A
:10081000ED33EC337009E8FCE9FDEAFEEBFF22045E
:1008200060DED3EB9FEA9EE99DE8C2E78CF0C2F759
:1008300095F0400CE8CCF8E9CDF9EACEFAEBCFFB25
:10084000120B8C85D0F05804700320D5B3E80470E7
:10085000075002B2D5020BCB92D5EC0460F7E4CC82
:10086000C0E0C398F8603B94186008400DD0E0FBEE
:10087000020BA3E4FBFAC9FC8028E830E406E4C9D3
:10088000FBE4CAFCE830E305E4C9CACBFCE8540742
:100890006010F8C3E913F9EA13FAEB13FBEC13FC4D
:1008A000D8F130F52FC3E49CFCEF9BFFEE9AFEEDF0
:1008B00099FDD0E0FBEF4E4D4C701222DB03020B92
:1008C000C8EC2CFCEF33FFEE33FEED33FDED30E7EB
:1008D000EB020BA3EF2BFFEE3AFEED39FDD0E0FB70
:1008E00050130BBB0003020BCBED13FDEE13FEEF19
:0808F00013FFEC13FC020BA343
:1008F800EC4D6011E8497017ED33EC3304600DE4FA
:10090800FCFFFEFD22E933E8330470F8020BC11244
:100918000B8C58046009E4CC248150062850090245
:100928000BCB284003020BC8C0E0EB4A7044B980E7
:1009380006D0E0FB020BB7EF4E701CBD8008EBFF42
:10094800EAFEE9FD80EBE98DF0A4FEE5F00209E19D
:10095800E9CDF9EAFEEBFFEF89F0A4FCE5F0CE89DA
:10096800F0A42EFFE435F0CD89F0A42DFEE435F097
:100978008067EF4E7005BD80D780C3EF8BF0A4ACC5
:10098800F0EE8BF0A42CFCE435F0F8EF8AF0A42C00
:10099800E5F038FCE433CB8DF0A42CFCE5F03BF813
:1009A800EE8AF0A42CFCE5F038F8E433CF89F0A403
:1009B8002CFCE5F038CF3400CE89F0A42FFFE5F009
:1009C8003EFEE433C98DF0A42EFEE5F039CD8AF061
:1009D800A42FFFE5F03EFEE43DFD33D0E0FB5007D9
:1009E8000BBB000F020BCBEC2CFCEF33FFEE33FEFE
:0609F800ED33FD020BA32C
:1009FE00020BCBEC5D046005E859047003020BC1D9
:100A0E00120B8C580460F6EC4860F2EC7004FDFE9C
:100A1E00FF22C860DB2481C85009C39860025006CB
:100A2E00020BC89850CAF582E9294B4A7005AB8271
:100A3E00020BB775F0007C1A7880C3EF9BEE9AED2F
:100A4E0099400DC3EF9BFFEE9AFEED99FDE842F043
:100A5E00DC23ACF0D0E0FFD0E0FED0E0FDAB822096
:100A6E00E7101BEB60BAEC2CFCEF33FFEE33FEED20
:100A7E0033FD020BA3E803F830E705C0F075F00074
:100A8E00EF2FFFEE33FEED33FD40B830E7C280AA04
:100A9E0074F8CC6480CCC86480C8F58204604FC3FF
:100AAE00EB9FF5F0EA9E42F0E99D42F0E89C45F09E
:100ABE00603C501DE5825FFFE582D313CB5BCBF428
:100ACE002B5582FB50280ABA002409B90020088051
:100ADE001DE5825BFBE582D313CF5FCFF4C3132FEB
:100AEE005582FF50090EBE00050DBD00010CC3EB73
:100AFE009FF5F0EA9E42F0E99D42F0E89C45F060D9
:090B0E0007CC4820E701B3EC22FA
:100B170075F020800E75F010800575F0087D007E59
:100B2700007F003392D530D503120C3DEC334010D3
:100B3700EF33FFEE33FEED33FDEC33FCD5F0ED2262
:0E0B4700E5F0247EA2D513CC92E7CDCEFF229E
:100B5500EDD2E7CD33EC3392D524814006E4FFFE98
:100B6500FDFC22FCE4CFCECDCC24E0501174FF80F7
:100B7500EDC3CC13CCCD13CDCE13CECF13CF047094
:070B8500F030D5DE020C3D4B
:100B8C00E9D2E7C933E833F892D5EDD2E7CD33ECAF
:070B9C0033FC5002B2D52228
:100BA300EC30E7100FBF000C0EBE00080DBD0004B3
:100BB3000BEB6014A2D5EB13FCED92E7FD2274FF5F
:100BC300FCFDFEFF22E480F8A2D574FF13FC7D80B8
:030BD300E480EFCC
:030000000210BD2E
:0C10BD00787FE4F6D8FD75813202110442
:100BD600EF8DF0A4A8F0CF8CF0A428CE8DF0A42E33
:020BE600FE22ED
:100BE800BC000BBE0029EF8DF084FFADF022E4CCF1
:100BF800F875F008EF2FFFEE33FEEC33FCEE9DECBA
:100C0800984005FCEE9DFE0FD5F0E9E4CEFD22EDFF
:100C1800F8F5F0EE8420D21CFEADF075F008EF2F49
:100C2800FFED33FD4007985006D5F0F222C398FD3A
:050C38000FD5F0EA22D7
:0E0C3D00C3E49FFFE49EFEE49DFDE49CFC22C8
:1010C900020F6BE493A3F8E493A34003F68001F2C3
:1010D90008DFF48029E493A3F85407240CC8C33328
:1010E900C4540F4420C8834004F456800146F6DFF7
:1010F900E4800B010204081020408090141CE47E57
:10110900019360BCA3FF543F30E509541FFEE493EB
:10111900A360010ECF54C025E060A840B8E493A3B2
:10112900FAE493A3F8E493A3C8C582C8CAC583CADD
:10113900F0A3C8C582C8CAC583CADFE9DEE780BE95
:01142C0000BF
:00000001FF
